{
  "_format": "hh-sol-artifact-1",
  "contractName": "Booking",
  "sourceName": "contracts/Booking.sol",
  "abi": [
    {
      "anonymous": false,
      "inputs": [
        {
          "indexed": false,
          "internalType": "address",
          "name": "from",
          "type": "address"
        },
        {
          "indexed": false,
          "internalType": "address",
          "name": "ChargerOwner",
          "type": "address"
        },
        {
          "indexed": false,
          "internalType": "uint256",
          "name": "amount",
          "type": "uint256"
        },
        {
          "indexed": false,
          "internalType": "uint256",
          "name": "startTime",
          "type": "uint256"
        },
        {
          "indexed": false,
          "internalType": "uint256",
          "name": "endTime",
          "type": "uint256"
        }
      ],
      "name": "Transfer",
      "type": "event"
    },
    {
      "inputs": [],
      "name": "getAllTransactions",
      "outputs": [
        {
          "components": [
            {
              "internalType": "address",
              "name": "sender",
              "type": "address"
            },
            {
              "internalType": "address",
              "name": "ChargerOwner",
              "type": "address"
            },
            {
              "internalType": "uint256",
              "name": "amount",
              "type": "uint256"
            },
            {
              "internalType": "uint256",
              "name": "startTime",
              "type": "uint256"
            },
            {
              "internalType": "uint256",
              "name": "endTime",
              "type": "uint256"
            }
          ],
          "internalType": "struct Booking.TransferStruct[]",
          "name": "",
          "type": "tuple[]"
        }
      ],
      "stateMutability": "view",
      "type": "function"
    },
    {
      "inputs": [],
      "name": "getTransactionCount",
      "outputs": [
        {
          "internalType": "uint256",
          "name": "",
          "type": "uint256"
        }
      ],
      "stateMutability": "view",
      "type": "function"
    },
    {
      "inputs": [
        {
          "internalType": "address payable",
          "name": "ChargerOwner",
          "type": "address"
        },
        {
          "internalType": "uint256",
          "name": "amount",
          "type": "uint256"
        },
        {
          "internalType": "uint256",
          "name": "startTime",
          "type": "uint256"
        },
        {
          "internalType": "uint256",
          "name": "endTime",
          "type": "uint256"
        }
      ],
      "name": "startBooking",
      "outputs": [],
      "stateMutability": "nonpayable",
      "type": "function"
    }
  ],
  "bytecode": "0x608060405234801561001057600080fd5b5061087c806100206000396000f3fe608060405234801561001057600080fd5b50600436106100415760003560e01c806327506f53146100465780632e7700f014610064578063dea4890514610082575b600080fd5b61004e61009e565b60405161005b9190610541565b60405180910390f35b61006c6101c7565b6040516100799190610572565b60405180910390f35b61009c600480360381019061009791906105fc565b6101d0565b005b60606001805480602002602001604051908101604052809291908181526020016000905b828210156101be57838290600052602060002090600502016040518060a00160405290816000820160009054906101000a900473ffffffffffffffffffffffffffffffffffffffff1673ffffffffffffffffffffffffffffffffffffffff1673ffffffffffffffffffffffffffffffffffffffff1681526020016001820160009054906101000a900473ffffffffffffffffffffffffffffffffffffffff1673ffffffffffffffffffffffffffffffffffffffff1673ffffffffffffffffffffffffffffffffffffffff1681526020016002820154815260200160038201548152602001600482015481525050815260200190600101906100c2565b50505050905090565b60008054905090565b60016000808282546101e29190610692565b9250508190555060006101f483610376565b9050600061020183610376565b905060016040518060a001604052803373ffffffffffffffffffffffffffffffffffffffff1681526020018873ffffffffffffffffffffffffffffffffffffffff16815260200187815260200184815260200183815250908060018154018082558091505060019003906000526020600020906005020160009091909190915060008201518160000160006101000a81548173ffffffffffffffffffffffffffffffffffffffff021916908373ffffffffffffffffffffffffffffffffffffffff16021790555060208201518160010160006101000a81548173ffffffffffffffffffffffffffffffffffffffff021916908373ffffffffffffffffffffffffffffffffffffffff16021790555060408201518160020155606082015181600301556080820151816004015550507fc817d75deaa278e988c41cf549ef38fe195ab65e0e64cd67ba47f0d185690d583387878585604051610366959493929190610734565b60405180910390a1505050505050565b6000601882106103bb576040517f08c379a00000000000000000000000000000000000000000000000000000000081526004016103b2906107e4565b60405180910390fd5b610e10826103c99190610804565b9050919050565b600081519050919050565b600082825260208201905092915050565b6000819050602082019050919050565b600073ffffffffffffffffffffffffffffffffffffffff82169050919050565b6000610427826103fc565b9050919050565b6104378161041c565b82525050565b6000819050919050565b6104508161043d565b82525050565b60a08201600082015161046c600085018261042e565b50602082015161047f602085018261042e565b5060408201516104926040850182610447565b5060608201516104a56060850182610447565b5060808201516104b86080850182610447565b50505050565b60006104ca8383610456565b60a08301905092915050565b6000602082019050919050565b60006104ee826103d0565b6104f881856103db565b9350610503836103ec565b8060005b8381101561053457815161051b88826104be565b9750610526836104d6565b925050600181019050610507565b5085935050505092915050565b6000602082019050818103600083015261055b81846104e3565b905092915050565b61056c8161043d565b82525050565b60006020820190506105876000830184610563565b92915050565b600080fd5b600061059d826103fc565b9050919050565b6105ad81610592565b81146105b857600080fd5b50565b6000813590506105ca816105a4565b92915050565b6105d98161043d565b81146105e457600080fd5b50565b6000813590506105f6816105d0565b92915050565b600080600080608085870312156106165761061561058d565b5b6000610624878288016105bb565b9450506020610635878288016105e7565b9350506040610646878288016105e7565b9250506060610657878288016105e7565b91505092959194509250565b7f4e487b7100000000000000000000000000000000000000000000000000000000600052601160045260246000fd5b600061069d8261043d565b91506106a88361043d565b92508282019050808211156106c0576106bf610663565b5b92915050565b6106cf8161041c565b82525050565b6000819050919050565b60006106fa6106f56106f0846103fc565b6106d5565b6103fc565b9050919050565b600061070c826106df565b9050919050565b600061071e82610701565b9050919050565b61072e81610713565b82525050565b600060a08201905061074960008301886106c6565b6107566020830187610725565b6107636040830186610563565b6107706060830185610563565b61077d6080830184610563565b9695505050505050565b600082825260208201905092915050565b7f496e76616c696420686f75720000000000000000000000000000000000000000600082015250565b60006107ce600c83610787565b91506107d982610798565b602082019050919050565b600060208201905081810360008301526107fd816107c1565b9050919050565b600061080f8261043d565b915061081a8361043d565b92508282026108288161043d565b9150828204841483151761083f5761083e610663565b5b509291505056fea264697066735822122001c3d0739db1e777f081053b13616878175d35ecdca05d9e72f7de91da7eb50664736f6c63430008120033",
  "linkReferences": {},
  "deployedLinkReferences": {}
}