{
  "_format": "hh-sol-artifact-1",
  "contractName": "ChargerManager",
  "sourceName": "contracts/ChargerManager.sol",
  "abi": [
    {
      "inputs": [
        {
          "internalType": "string",
          "name": "name",
          "type": "string"
        },
        {
          "internalType": "string",
          "name": "location",
          "type": "string"
        },
        {
          "internalType": "uint256",
          "name": "price",
          "type": "uint256"
        },
        {
          "internalType": "string",
          "name": "description",
          "type": "string"
        }
      ],
      "name": "addCharger",
      "outputs": [],
      "stateMutability": "nonpayable",
      "type": "function"
    },
    {
      "inputs": [],
      "name": "chargerCount",
      "outputs": [
        {
          "internalType": "uint256",
          "name": "",
          "type": "uint256"
        }
      ],
      "stateMutability": "view",
      "type": "function"
    },
    {
      "inputs": [
        {
          "internalType": "uint256",
          "name": "",
          "type": "uint256"
        }
      ],
      "name": "chargers",
      "outputs": [
        {
          "internalType": "string",
          "name": "name",
          "type": "string"
        },
        {
          "internalType": "string",
          "name": "location",
          "type": "string"
        },
        {
          "internalType": "uint256",
          "name": "price",
          "type": "uint256"
        },
        {
          "internalType": "string",
          "name": "description",
          "type": "string"
        }
      ],
      "stateMutability": "view",
      "type": "function"
    },
    {
      "inputs": [],
      "name": "getChargerCount",
      "outputs": [
        {
          "internalType": "uint256",
          "name": "",
          "type": "uint256"
        }
      ],
      "stateMutability": "view",
      "type": "function"
    },
    {
      "inputs": [
        {
          "internalType": "uint256",
          "name": "id",
          "type": "uint256"
        }
      ],
      "name": "getChargerDetails",
      "outputs": [
        {
          "components": [
            {
              "internalType": "string",
              "name": "name",
              "type": "string"
            },
            {
              "internalType": "string",
              "name": "location",
              "type": "string"
            },
            {
              "internalType": "uint256",
              "name": "price",
              "type": "uint256"
            },
            {
              "internalType": "string",
              "name": "description",
              "type": "string"
            }
          ],
          "internalType": "struct ChargerManager.Charger",
          "name": "",
          "type": "tuple"
        }
      ],
      "stateMutability": "view",
      "type": "function"
    }
  ],
  "bytecode": "0x608060405234801561001057600080fd5b50610d9d806100206000396000f3fe608060405234801561001057600080fd5b50600436106100575760003560e01c806320dba9ea1461005c5780636effe19a1461007a578063a001c81614610098578063e29c12a6146100b4578063e7469452146100e4575b600080fd5b610064610117565b60405161007191906105c4565b60405180910390f35b610082610121565b60405161008f91906105c4565b60405180910390f35b6100b260048036038101906100ad9190610765565b610127565b005b6100ce60048036038101906100c99190610820565b6101cf565b6040516100db919061094c565b60405180910390f35b6100fe60048036038101906100f99190610820565b6103bb565b60405161010e94939291906109b8565b60405180910390f35b6000600154905090565b60015481565b6000600154905060405180608001604052808681526020018581526020018481526020018381525060008083815260200190815260200160002060008201518160000190816101769190610c1e565b50602082015181600101908161018c9190610c1e565b506040820151816002015560608201518160030190816101ac9190610c1e565b50905050600160008154809291906101c390610d1f565b91905055505050505050565b6101d7610583565b60008083815260200190815260200160002060405180608001604052908160008201805461020490610a41565b80601f016020809104026020016040519081016040528092919081815260200182805461023090610a41565b801561027d5780601f106102525761010080835404028352916020019161027d565b820191906000526020600020905b81548152906001019060200180831161026057829003601f168201915b5050505050815260200160018201805461029690610a41565b80601f01602080910402602001604051908101604052809291908181526020018280546102c290610a41565b801561030f5780601f106102e45761010080835404028352916020019161030f565b820191906000526020600020905b8154815290600101906020018083116102f257829003601f168201915b505050505081526020016002820154815260200160038201805461033290610a41565b80601f016020809104026020016040519081016040528092919081815260200182805461035e90610a41565b80156103ab5780601f10610380576101008083540402835291602001916103ab565b820191906000526020600020905b81548152906001019060200180831161038e57829003601f168201915b5050505050815250509050919050565b60006020528060005260406000206000915090508060000180546103de90610a41565b80601f016020809104026020016040519081016040528092919081815260200182805461040a90610a41565b80156104575780601f1061042c57610100808354040283529160200191610457565b820191906000526020600020905b81548152906001019060200180831161043a57829003601f168201915b50505050509080600101805461046c90610a41565b80601f016020809104026020016040519081016040528092919081815260200182805461049890610a41565b80156104e55780601f106104ba576101008083540402835291602001916104e5565b820191906000526020600020905b8154815290600101906020018083116104c857829003601f168201915b50505050509080600201549080600301805461050090610a41565b80601f016020809104026020016040519081016040528092919081815260200182805461052c90610a41565b80156105795780601f1061054e57610100808354040283529160200191610579565b820191906000526020600020905b81548152906001019060200180831161055c57829003601f168201915b5050505050905084565b6040518060800160405280606081526020016060815260200160008152602001606081525090565b6000819050919050565b6105be816105ab565b82525050565b60006020820190506105d960008301846105b5565b92915050565b6000604051905090565b600080fd5b600080fd5b600080fd5b600080fd5b6000601f19601f8301169050919050565b7f4e487b7100000000000000000000000000000000000000000000000000000000600052604160045260246000fd5b610646826105fd565b810181811067ffffffffffffffff821117156106655761066461060e565b5b80604052505050565b60006106786105df565b9050610684828261063d565b919050565b600067ffffffffffffffff8211156106a4576106a361060e565b5b6106ad826105fd565b9050602081019050919050565b82818337600083830152505050565b60006106dc6106d784610689565b61066e565b9050828152602081018484840111156106f8576106f76105f8565b5b6107038482856106ba565b509392505050565b600082601f8301126107205761071f6105f3565b5b81356107308482602086016106c9565b91505092915050565b610742816105ab565b811461074d57600080fd5b50565b60008135905061075f81610739565b92915050565b6000806000806080858703121561077f5761077e6105e9565b5b600085013567ffffffffffffffff81111561079d5761079c6105ee565b5b6107a98782880161070b565b945050602085013567ffffffffffffffff8111156107ca576107c96105ee565b5b6107d68782880161070b565b93505060406107e787828801610750565b925050606085013567ffffffffffffffff811115610808576108076105ee565b5b6108148782880161070b565b91505092959194509250565b600060208284031215610836576108356105e9565b5b600061084484828501610750565b91505092915050565b600081519050919050565b600082825260208201905092915050565b60005b8381101561088757808201518184015260208101905061086c565b60008484015250505050565b600061089e8261084d565b6108a88185610858565b93506108b8818560208601610869565b6108c1816105fd565b840191505092915050565b6108d5816105ab565b82525050565b600060808301600083015184820360008601526108f88282610893565b915050602083015184820360208601526109128282610893565b915050604083015161092760408601826108cc565b506060830151848203606086015261093f8282610893565b9150508091505092915050565b6000602082019050818103600083015261096681846108db565b905092915050565b600082825260208201905092915050565b600061098a8261084d565b610994818561096e565b93506109a4818560208601610869565b6109ad816105fd565b840191505092915050565b600060808201905081810360008301526109d2818761097f565b905081810360208301526109e6818661097f565b90506109f560408301856105b5565b8181036060830152610a07818461097f565b905095945050505050565b7f4e487b7100000000000000000000000000000000000000000000000000000000600052602260045260246000fd5b60006002820490506001821680610a5957607f821691505b602082108103610a6c57610a6b610a12565b5b50919050565b60008190508160005260206000209050919050565b60006020601f8301049050919050565b600082821b905092915050565b600060088302610ad47fffffffffffffffffffffffffffffffffffffffffffffffffffffffffffffffff82610a97565b610ade8683610a97565b95508019841693508086168417925050509392505050565b6000819050919050565b6000610b1b610b16610b11846105ab565b610af6565b6105ab565b9050919050565b6000819050919050565b610b3583610b00565b610b49610b4182610b22565b848454610aa4565b825550505050565b600090565b610b5e610b51565b610b69818484610b2c565b505050565b5b81811015610b8d57610b82600082610b56565b600181019050610b6f565b5050565b601f821115610bd257610ba381610a72565b610bac84610a87565b81016020851015610bbb578190505b610bcf610bc785610a87565b830182610b6e565b50505b505050565b600082821c905092915050565b6000610bf560001984600802610bd7565b1980831691505092915050565b6000610c0e8383610be4565b9150826002028217905092915050565b610c278261084d565b67ffffffffffffffff811115610c4057610c3f61060e565b5b610c4a8254610a41565b610c55828285610b91565b600060209050601f831160018114610c885760008415610c76578287015190505b610c808582610c02565b865550610ce8565b601f198416610c9686610a72565b60005b82811015610cbe57848901518255600182019150602085019450602081019050610c99565b86831015610cdb5784890151610cd7601f891682610be4565b8355505b6001600288020188555050505b505050505050565b7f4e487b7100000000000000000000000000000000000000000000000000000000600052601160045260246000fd5b6000610d2a826105ab565b91507fffffffffffffffffffffffffffffffffffffffffffffffffffffffffffffffff8203610d5c57610d5b610cf0565b5b60018201905091905056fea2646970667358221220ce78639a055a1600cf567ee58aea624d0107f80f8b389e08755275a073fcde0c64736f6c63430008120033",
  "linkReferences": {},
  "deployedLinkReferences": {}
}